{
  "transactions": [
    {
      "hash": "0xf4edb5746b8b29ee4303b135b845004203be9e3904c6975cb97f878c20d89031",
      "transactionType": "CALL",
      "contractName": null,
      "contractAddress": "0x532842de9470816cf7cc7cee2d15f19593fbaf64",
      "function": "approve(address,uint256)",
      "arguments": [
        "0x35c540E8081d2dBa0229Eaf8c8D5CC9Cc11B003D",
        "100000000"
      ],
      "transaction": {
        "from": "0xbbb91dd1337852056a870b4e81d8f582552eca89",
        "to": "0x532842de9470816cf7cc7cee2d15f19593fbaf64",
        "gas": "0x109f6",
        "value": "0x0",
        "input": "0x095ea7b300000000000000000000000035c540e8081d2dba0229eaf8c8d5cc9cc11b003d0000000000000000000000000000000000000000000000000000000005f5e100",
        "nonce": "0x9d",
        "chainId": "0xaa36a7"
      },
      "additionalContracts": [],
      "isFixedGasLimit": false
    },
    {
      "hash": "0x512f3f63b31c0962fbcab8513ee2860966070945da2a5ce9e2998d0547485215",
      "transactionType": "CALL",
      "contractName": "ProxyContract",
      "contractAddress": "0x35c540e8081d2dba0229eaf8c8d5cc9cc11b003d",
      "function": null,
      "arguments": null,
      "transaction": {
        "from": "0xbbb91dd1337852056a870b4e81d8f582552eca89",
        "to": "0x35c540e8081d2dba0229eaf8c8d5cc9cc11b003d",
        "gas": "0x11c875",
        "value": "0x0",
        "input": "0xbe7c09940000000000000000000000009fa87e2a02d6e187658ae232d3a3cab38fd638ca0000000000000000000000000000000000000000000000000000000005f5e10000000000000000000000000000000000000000000000000000000000000000e000000000000000000000000000000000000000000000000000000000000001400000000000000000000000000000000000000000000000000000000000000000000000000000000000000000532842de9470816cf7cc7cee2d15f19593fbaf640000000000000000000000000000000000000000000000000000000000000000000000000000000000000000000000000000000000000000000000000000003f616c656f316667387930617839673079686168726b6e6e677a77786b70636637656a79336d6d3663656e74346d6d7477657735756570733873366a7a6c323700000000000000000000000000000000000000000000000000000000000000008000000000000000000000000000000000000000000000000000000000690da11c00000000000000000000000000000000000000000000000000000000000000e00000000000000000000000000000000000000000000000000000000000000120000000000000000000000000000000000000000000000000000000000000002463356339383737622d613962642d346631652d616337382d323635363039666233313831000000000000000000000000000000000000000000000000000000000000000000000000000000000000000000000000000000000000000000000001000000000000000000000000dac74b6f9b3609e914c924eb87adff87a30fcdf60000000000000000000000000000000000000000000000000000000000000001000000000000000000000000000000000000000000000000000000000000002000000000000000000000000000000000000000000000000000000000000000415086bb992975c2a0855ae07830bd90b73a7f0ad55b54ca6618e60131e39dda394a11d84a6e4bf2570df73e57ca8d964436de7fd286a2f61a6f5795b49f5e2ea31c00000000000000000000000000000000000000000000000000000000000000",
        "nonce": "0x9e",
        "chainId": "0xaa36a7"
      },
      "additionalContracts": [],
      "isFixedGasLimit": false
    }
  ],
  "receipts": [
    {
      "status": "0x1",
      "cumulativeGasUsed": "0x1188043",
      "logs": [
        {
          "address": "0x532842de9470816cf7cc7cee2d15f19593fbaf64",
          "topics": [
            "0x8c5be1e5ebec7d5bd14f71427d1e84f3dd0314c0f7b2291e5b200ac8c7c3b925",
            "0x000000000000000000000000bbb91dd1337852056a870b4e81d8f582552eca89",
            "0x00000000000000000000000035c540e8081d2dba0229eaf8c8d5cc9cc11b003d"
          ],
          "data": "0x0000000000000000000000000000000000000000000000000000000005f5e100",
          "blockHash": "0x3405850ebc0bb757c3728974895d1a6d569ed68c36cdbdb420ba589401584f4f",
          "blockNumber": "0x922548",
          "blockTimestamp": "0x690d9320",
          "transactionHash": "0xf4edb5746b8b29ee4303b135b845004203be9e3904c6975cb97f878c20d89031",
          "transactionIndex": "0x62",
          "logIndex": "0x89",
          "removed": false
        }
      ],
      "logsBloom": "0x00000000000000000000000000080000002000000000000000000000000000000000000000000000000000000000000000000000000000000000000000200000000000000000000000000000000000000000000000000000000000000000000000000000000000000000000000200000002000000000000000000000000000000000000000000000000000000000000000000020000000000000020000000000020000000000000000000000000000000000000000000000000000000000000000000000000000000000000000000000000000000000000000020000000000000010000000000002000000000000000000000000000000000400000000000000",
      "type": "0x2",
      "transactionHash": "0xf4edb5746b8b29ee4303b135b845004203be9e3904c6975cb97f878c20d89031",
      "transactionIndex": "0x62",
      "blockHash": "0x3405850ebc0bb757c3728974895d1a6d569ed68c36cdbdb420ba589401584f4f",
      "blockNumber": "0x922548",
      "gasUsed": "0xb5db",
      "effectiveGasPrice": "0xf424a",
      "from": "0xbbb91dd1337852056a870b4e81d8f582552eca89",
      "to": "0x532842de9470816cf7cc7cee2d15f19593fbaf64",
      "contractAddress": null
    },
    {
      "status": "0x1",
      "cumulativeGasUsed": "0x1256029",
      "logs": [
        {
          "address": "0x532842de9470816cf7cc7cee2d15f19593fbaf64",
          "topics": [
            "0x8c5be1e5ebec7d5bd14f71427d1e84f3dd0314c0f7b2291e5b200ac8c7c3b925",
            "0x000000000000000000000000bbb91dd1337852056a870b4e81d8f582552eca89",
            "0x00000000000000000000000035c540e8081d2dba0229eaf8c8d5cc9cc11b003d"
          ],
          "data": "0x0000000000000000000000000000000000000000000000000000000000000000",
          "blockHash": "0x3405850ebc0bb757c3728974895d1a6d569ed68c36cdbdb420ba589401584f4f",
          "blockNumber": "0x922548",
          "blockTimestamp": "0x690d9320",
          "transactionHash": "0x512f3f63b31c0962fbcab8513ee2860966070945da2a5ce9e2998d0547485215",
          "transactionIndex": "0x63",
          "logIndex": "0x8a",
          "removed": false
        },
        {
          "address": "0x532842de9470816cf7cc7cee2d15f19593fbaf64",
          "topics": [
            "0xddf252ad1be2c89b69c2b068fc378daa952ba7f163c4a11628f55a4df523b3ef",
            "0x000000000000000000000000bbb91dd1337852056a870b4e81d8f582552eca89",
            "0x00000000000000000000000035c540e8081d2dba0229eaf8c8d5cc9cc11b003d"
          ],
          "data": "0x0000000000000000000000000000000000000000000000000000000005f5e100",
          "blockHash": "0x3405850ebc0bb757c3728974895d1a6d569ed68c36cdbdb420ba589401584f4f",
          "blockNumber": "0x922548",
          "blockTimestamp": "0x690d9320",
          "transactionHash": "0x512f3f63b31c0962fbcab8513ee2860966070945da2a5ce9e2998d0547485215",
          "transactionIndex": "0x63",
          "logIndex": "0x8b",
          "removed": false
        },
        {
          "address": "0x532842de9470816cf7cc7cee2d15f19593fbaf64",
          "topics": [
            "0x8c5be1e5ebec7d5bd14f71427d1e84f3dd0314c0f7b2291e5b200ac8c7c3b925",
            "0x00000000000000000000000035c540e8081d2dba0229eaf8c8d5cc9cc11b003d",
            "0x0000000000000000000000009fa87e2a02d6e187658ae232d3a3cab38fd638ca"
          ],
          "data": "0x0000000000000000000000000000000000000000000000000000000005f5e100",
          "blockHash": "0x3405850ebc0bb757c3728974895d1a6d569ed68c36cdbdb420ba589401584f4f",
          "blockNumber": "0x922548",
          "blockTimestamp": "0x690d9320",
          "transactionHash": "0x512f3f63b31c0962fbcab8513ee2860966070945da2a5ce9e2998d0547485215",
          "transactionIndex": "0x63",
          "logIndex": "0x8c",
          "removed": false
        },
        {
          "address": "0x532842de9470816cf7cc7cee2d15f19593fbaf64",
          "topics": [
            "0x8c5be1e5ebec7d5bd14f71427d1e84f3dd0314c0f7b2291e5b200ac8c7c3b925",
            "0x00000000000000000000000035c540e8081d2dba0229eaf8c8d5cc9cc11b003d",
            "0x0000000000000000000000009fa87e2a02d6e187658ae232d3a3cab38fd638ca"
          ],
          "data": "0x0000000000000000000000000000000000000000000000000000000000000000",
          "blockHash": "0x3405850ebc0bb757c3728974895d1a6d569ed68c36cdbdb420ba589401584f4f",
          "blockNumber": "0x922548",
          "blockTimestamp": "0x690d9320",
          "transactionHash": "0x512f3f63b31c0962fbcab8513ee2860966070945da2a5ce9e2998d0547485215",
          "transactionIndex": "0x63",
          "logIndex": "0x8d",
          "removed": false
        },
        {
          "address": "0x532842de9470816cf7cc7cee2d15f19593fbaf64",
          "topics": [
            "0xddf252ad1be2c89b69c2b068fc378daa952ba7f163c4a11628f55a4df523b3ef",
            "0x00000000000000000000000035c540e8081d2dba0229eaf8c8d5cc9cc11b003d",
            "0x0000000000000000000000009fa87e2a02d6e187658ae232d3a3cab38fd638ca"
          ],
          "data": "0x0000000000000000000000000000000000000000000000000000000005f5e100",
          "blockHash": "0x3405850ebc0bb757c3728974895d1a6d569ed68c36cdbdb420ba589401584f4f",
          "blockNumber": "0x922548",
          "blockTimestamp": "0x690d9320",
          "transactionHash": "0x512f3f63b31c0962fbcab8513ee2860966070945da2a5ce9e2998d0547485215",
          "transactionIndex": "0x63",
          "logIndex": "0x8e",
          "removed": false
        },
        {
          "address": "0x9fa87e2a02d6e187658ae232d3a3cab38fd638ca",
          "topics": [
            "0xddf252ad1be2c89b69c2b068fc378daa952ba7f163c4a11628f55a4df523b3ef",
            "0x0000000000000000000000000000000000000000000000000000000000000000",
            "0x00000000000000000000000035c540e8081d2dba0229eaf8c8d5cc9cc11b003d"
          ],
          "data": "0x0000000000000000000000000000000000000000000000000000000005f5e100",
          "blockHash": "0x3405850ebc0bb757c3728974895d1a6d569ed68c36cdbdb420ba589401584f4f",
          "blockNumber": "0x922548",
          "blockTimestamp": "0x690d9320",
          "transactionHash": "0x512f3f63b31c0962fbcab8513ee2860966070945da2a5ce9e2998d0547485215",
          "transactionIndex": "0x63",
          "logIndex": "0x8f",
          "removed": false
        },
        {
          "address": "0x9fa87e2a02d6e187658ae232d3a3cab38fd638ca",
          "topics": [
            "0xea00f88768a86184a6e515238a549c171769fe7460a011d6fd0bcd48ca078ea4",
            "0x00000000000000000000000035c540e8081d2dba0229eaf8c8d5cc9cc11b003d",
            "0x000000000000000000000000532842de9470816cf7cc7cee2d15f19593fbaf64",
            "0x00000000000000000000000035c540e8081d2dba0229eaf8c8d5cc9cc11b003d"
          ],
          "data": "0x0000000000000000000000000000000000000000000000000000000005f5e1000000000000000000000000000000000000000000000000000000000005f5e100",
          "blockHash": "0x3405850ebc0bb757c3728974895d1a6d569ed68c36cdbdb420ba589401584f4f",
          "blockNumber": "0x922548",
          "blockTimestamp": "0x690d9320",
          "transactionHash": "0x512f3f63b31c0962fbcab8513ee2860966070945da2a5ce9e2998d0547485215",
          "transactionIndex": "0x63",
          "logIndex": "0x90",
          "removed": false
        },
        {
          "address": "0x74066bf569fc0077072ff4c08a83f790dff3f254",
          "topics": [
            "0xe96d7872363f475d18b2f5390caaa5eaa96b2d38e42c62afe4ac08ebd2b13c3a",
            "0x0000000000000000000000000000000000000000000000000000000000000003",
            "0x00000000000000000000000035c540e8081d2dba0229eaf8c8d5cc9cc11b003d",
            "0x000000000000000000000000532842de9470816cf7cc7cee2d15f19593fbaf64"
          ],
          "data": "0x0000000000000000000000000000000000000000000000000000000005f5e1000000000000000000000000000000000000000000000000000000000005f5e10000000000000000000000000000000000000000000000000000000000690d93200000000000000000000000000000000000000000000000000000000000000000",
          "blockHash": "0x3405850ebc0bb757c3728974895d1a6d569ed68c36cdbdb420ba589401584f4f",
          "blockNumber": "0x922548",
          "blockTimestamp": "0x690d9320",
          "transactionHash": "0x512f3f63b31c0962fbcab8513ee2860966070945da2a5ce9e2998d0547485215",
          "transactionIndex": "0x63",
          "logIndex": "0x91",
          "removed": false
        },
        {
          "address": "0x532842de9470816cf7cc7cee2d15f19593fbaf64",
          "topics": [
            "0x8c5be1e5ebec7d5bd14f71427d1e84f3dd0314c0f7b2291e5b200ac8c7c3b925",
            "0x00000000000000000000000035c540e8081d2dba0229eaf8c8d5cc9cc11b003d",
            "0x0000000000000000000000009fa87e2a02d6e187658ae232d3a3cab38fd638ca"
          ],
          "data": "0x0000000000000000000000000000000000000000000000000000000000000000",
          "blockHash": "0x3405850ebc0bb757c3728974895d1a6d569ed68c36cdbdb420ba589401584f4f",
          "blockNumber": "0x922548",
          "blockTimestamp": "0x690d9320",
          "transactionHash": "0x512f3f63b31c0962fbcab8513ee2860966070945da2a5ce9e2998d0547485215",
          "transactionIndex": "0x63",
          "logIndex": "0x92",
          "removed": false
        },
        {
          "address": "0xb4486f75129b0aa74f99b1b8b7b478cd4c17e994",
          "topics": [
            "0xb4c99a6d727df238766e771095ad097c0bf9c2aef920b56b65c0ac529f36f2db",
            "0x000000000000000000000000bbb91dd1337852056a870b4e81d8f582552eca89",
            "0x000000000000000000000000f3235882ba91086c2e2d05953b91df23efe68d6e",
            "0x0000000000000000000000000000000000000000000000000000000000000000"
          ],
          "data": "0x00000000000000000000000000000000000000000000000000000000000000a000000000000000000000000000000000000000000000000000000000000000e0000000000000000000000000000000000000000000000000000000000000000100000000000000000000000000000000000000000000000000000000690da11c00000000000000000000000000000000000000000000000000000000000001400000000000000000000000000000000000000000000000000000000000000017782d616c656f2d36613532646539373234613665386632000000000000000000000000000000000000000000000000000000000000000000000000000000002463356339383737622d613962642d346631652d616337382d323635363039666233313831000000000000000000000000000000000000000000000000000000000000000000000000000000000000000000000000000000000000000000000001000000000000000000000000dac74b6f9b3609e914c924eb87adff87a30fcdf6",
          "blockHash": "0x3405850ebc0bb757c3728974895d1a6d569ed68c36cdbdb420ba589401584f4f",
          "blockNumber": "0x922548",
          "blockTimestamp": "0x690d9320",
          "transactionHash": "0x512f3f63b31c0962fbcab8513ee2860966070945da2a5ce9e2998d0547485215",
          "transactionIndex": "0x63",
          "logIndex": "0x93",
          "removed": false
        },
        {
          "address": "0x54d1540631cacfa5f8d9b3371b88f562355387fa",
          "topics": [
            "0x2ea0473a63d92d3182c86a6f05d1984a63782c7c58f5d32bb629fdf43388c1b0"
          ],
          "data": "0x000000000000000000000000000000000000000000000000000000000000004000000000000000000000000000000000000000000000000000000000000002e000000000000000000000000000000000000000000000000000000000000000030000000000000000000000000000000000000000000000000000000000000007000000000000000000000000000000000000000000000000006574683aaa36a700000000000000000000000035c540e8081d2dba0229eaf8c8d5cc9cc11b003d00000000000000000000000000000000000000000000000000000000000000e00000000000000000000000000000000000000000000000000000000000000180000000000000000000000000000000000000000000000000000000000092254800000000000000000000000000000000000000000000000000000616c656f3a30000000000000000000000000000000000000000000000000000000000000040000000000000000000000000000000000000000000000000000000000000003f616c656f31756e336d6e797530797866376d7072616779787376377936616539613664687167737071396c6e78396e6d70376e3875347967716a723939386b00000000000000000000000000bbb91dd1337852056a870b4e81d8f582552eca8900000000000000000000000000000000000000000000000000000000000000800000000000000000000000000000000000000000000000000000000005f5e10000000000000000000000000000000000000000000000000000000000000000c0000000000000000000000000000000000000000000000000000000000000001031313131313131313131316669656c6400000000000000000000000000000000000000000000000000000000000000000000000000000000000000000000003f616c656f316667387930617839673079686168726b6e6e677a77786b70636637656a79336d6d3663656e74346d6d7477657735756570733873366a7a6c3237000000000000000000000000000000000000000000000000000000000000000000",
          "blockHash": "0x3405850ebc0bb757c3728974895d1a6d569ed68c36cdbdb420ba589401584f4f",
          "blockNumber": "0x922548",
          "blockTimestamp": "0x690d9320",
          "transactionHash": "0x512f3f63b31c0962fbcab8513ee2860966070945da2a5ce9e2998d0547485215",
          "transactionIndex": "0x63",
          "logIndex": "0x94",
          "removed": false
        }
      ],
      "logsBloom": "0x00000000400000000000000010080000002400000000000000000000000000402000001060000000004200000000100000000000820000000000000000200000040000000000000008000008080000000000400000000000000000800000000000200000020000000000000000200840002100000000000000000010000000000000000000000000000000000000000000000020000080000000020000000000020000000000004200000000000000000000000000800000000000000000440000800003000000000000000000000042000000000000000000020000000020002010000000080002400000010040000000000000000000000400000000000000",
      "type": "0x2",
      "transactionHash": "0x512f3f63b31c0962fbcab8513ee2860966070945da2a5ce9e2998d0547485215",
      "transactionIndex": "0x63",
      "blockHash": "0x3405850ebc0bb757c3728974895d1a6d569ed68c36cdbdb420ba589401584f4f",
      "blockNumber": "0x922548",
      "gasUsed": "0xcdfe6",
      "effectiveGasPrice": "0xf424a",
      "from": "0xbbb91dd1337852056a870b4e81d8f582552eca89",
      "to": "0x35c540e8081d2dba0229eaf8c8d5cc9cc11b003d",
      "contractAddress": null
    }
  ],
  "libraries": [],
  "pending": [],
  "returns": {},
  "timestamp": 1762497314306,
  "chain": 11155111,
  "commit": "fd4b907c"
}