{
  "transactions": [
    {
      "hash": "0xf0024cd8392f836bcd2c26b29294397dd4f62de9b642bb06819b6eee5dcd68ad",
      "transactionType": "CALL",
      "contractName": null,
      "contractAddress": "0x532842de9470816cf7cc7cee2d15f19593fbaf64",
      "function": "approve(address,uint256)",
      "arguments": [
        "0x35c540E8081d2dBa0229Eaf8c8D5CC9Cc11B003D",
        "100000000"
      ],
      "transaction": {
        "from": "0xbbb91dd1337852056a870b4e81d8f582552eca89",
        "to": "0x532842de9470816cf7cc7cee2d15f19593fbaf64",
        "gas": "0x109f6",
        "value": "0x0",
        "input": "0x095ea7b300000000000000000000000035c540e8081d2dba0229eaf8c8d5cc9cc11b003d0000000000000000000000000000000000000000000000000000000005f5e100",
        "nonce": "0x97",
        "chainId": "0xaa36a7"
      },
      "additionalContracts": [],
      "isFixedGasLimit": false
    },
    {
      "hash": "0xe258886c14e992b3e936a6d86ceda45e6b757191f58199ac7af8e6570349beb0",
      "transactionType": "CALL",
      "contractName": "ProxyContract",
      "contractAddress": "0x35c540e8081d2dba0229eaf8c8d5cc9cc11b003d",
      "function": null,
      "arguments": null,
      "transaction": {
        "from": "0xbbb91dd1337852056a870b4e81d8f582552eca89",
        "to": "0x35c540e8081d2dba0229eaf8c8d5cc9cc11b003d",
        "gas": "0x13b19b",
        "value": "0x0",
        "input": "0xbe7c09940000000000000000000000009fa87e2a02d6e187658ae232d3a3cab38fd638ca0000000000000000000000000000000000000000000000000000000005f5e10000000000000000000000000000000000000000000000000000000000000000e000000000000000000000000000000000000000000000000000000000000001400000000000000000000000000000000000000000000000000000000000000000000000000000000000000000532842de9470816cf7cc7cee2d15f19593fbaf640000000000000000000000000000000000000000000000000000000000000000000000000000000000000000000000000000000000000000000000000000003f616c656f316a67613968726e306435756d7132747371747932746376746a6b7664386e3972306737636a37667135766c6434793668657367737132336e336c00000000000000000000000000000000000000000000000000000000000000008000000000000000000000000000000000000000000000000000000000690c953500000000000000000000000000000000000000000000000000000000000000e00000000000000000000000000000000000000000000000000000000000000120000000000000000000000000000000000000000000000000000000000000002431663364656263312d613066322d343737392d626335392d343039383438393263316531000000000000000000000000000000000000000000000000000000000000000000000000000000000000000000000000000000000000000000000001000000000000000000000000dac74b6f9b3609e914c924eb87adff87a30fcdf6000000000000000000000000000000000000000000000000000000000000000100000000000000000000000000000000000000000000000000000000000000200000000000000000000000000000000000000000000000000000000000000041912515877d1fd1f8ce3b7e19f0982775c1adc06b98969c54111582bd4947a8d62ba66cb38a6fe19722bfcd34924fa75d43231afe306121eeba28aa56953953cc1c00000000000000000000000000000000000000000000000000000000000000",
        "nonce": "0x98",
        "chainId": "0xaa36a7"
      },
      "additionalContracts": [],
      "isFixedGasLimit": false
    }
  ],
  "receipts": [
    {
      "status": "0x1",
      "cumulativeGasUsed": "0xdca233",
      "logs": [
        {
          "address": "0x532842de9470816cf7cc7cee2d15f19593fbaf64",
          "topics": [
            "0x8c5be1e5ebec7d5bd14f71427d1e84f3dd0314c0f7b2291e5b200ac8c7c3b925",
            "0x000000000000000000000000bbb91dd1337852056a870b4e81d8f582552eca89",
            "0x00000000000000000000000035c540e8081d2dba0229eaf8c8d5cc9cc11b003d"
          ],
          "data": "0x0000000000000000000000000000000000000000000000000000000005f5e100",
          "blockHash": "0xe8fdb411e0dee6a2280e6707a769ccd4dc115f38e04a0b76d0dbd3e86ed82f43",
          "blockNumber": "0x921079",
          "blockTimestamp": "0x690c873c",
          "transactionHash": "0xf0024cd8392f836bcd2c26b29294397dd4f62de9b642bb06819b6eee5dcd68ad",
          "transactionIndex": "0x59",
          "logIndex": "0x75",
          "removed": false
        }
      ],
      "logsBloom": "0x00000000000000000000000000080000002000000000000000000000000000000000000000000000000000000000000000000000000000000000000000200000000000000000000000000000000000000000000000000000000000000000000000000000000000000000000000200000002000000000000000000000000000000000000000000000000000000000000000000020000000000000020000000000020000000000000000000000000000000000000000000000000000000000000000000000000000000000000000000000000000000000000000020000000000000010000000000002000000000000000000000000000000000400000000000000",
      "type": "0x2",
      "transactionHash": "0xf0024cd8392f836bcd2c26b29294397dd4f62de9b642bb06819b6eee5dcd68ad",
      "transactionIndex": "0x59",
      "blockHash": "0xe8fdb411e0dee6a2280e6707a769ccd4dc115f38e04a0b76d0dbd3e86ed82f43",
      "blockNumber": "0x921079",
      "gasUsed": "0xb5db",
      "effectiveGasPrice": "0xb0bb",
      "from": "0xbbb91dd1337852056a870b4e81d8f582552eca89",
      "to": "0x532842de9470816cf7cc7cee2d15f19593fbaf64",
      "contractAddress": null
    },
    {
      "status": "0x1",
      "cumulativeGasUsed": "0xea1974",
      "logs": [
        {
          "address": "0x532842de9470816cf7cc7cee2d15f19593fbaf64",
          "topics": [
            "0x8c5be1e5ebec7d5bd14f71427d1e84f3dd0314c0f7b2291e5b200ac8c7c3b925",
            "0x000000000000000000000000bbb91dd1337852056a870b4e81d8f582552eca89",
            "0x00000000000000000000000035c540e8081d2dba0229eaf8c8d5cc9cc11b003d"
          ],
          "data": "0x0000000000000000000000000000000000000000000000000000000000000000",
          "blockHash": "0xe8fdb411e0dee6a2280e6707a769ccd4dc115f38e04a0b76d0dbd3e86ed82f43",
          "blockNumber": "0x921079",
          "blockTimestamp": "0x690c873c",
          "transactionHash": "0xe258886c14e992b3e936a6d86ceda45e6b757191f58199ac7af8e6570349beb0",
          "transactionIndex": "0x5a",
          "logIndex": "0x76",
          "removed": false
        },
        {
          "address": "0x532842de9470816cf7cc7cee2d15f19593fbaf64",
          "topics": [
            "0xddf252ad1be2c89b69c2b068fc378daa952ba7f163c4a11628f55a4df523b3ef",
            "0x000000000000000000000000bbb91dd1337852056a870b4e81d8f582552eca89",
            "0x00000000000000000000000035c540e8081d2dba0229eaf8c8d5cc9cc11b003d"
          ],
          "data": "0x0000000000000000000000000000000000000000000000000000000005f5e100",
          "blockHash": "0xe8fdb411e0dee6a2280e6707a769ccd4dc115f38e04a0b76d0dbd3e86ed82f43",
          "blockNumber": "0x921079",
          "blockTimestamp": "0x690c873c",
          "transactionHash": "0xe258886c14e992b3e936a6d86ceda45e6b757191f58199ac7af8e6570349beb0",
          "transactionIndex": "0x5a",
          "logIndex": "0x77",
          "removed": false
        },
        {
          "address": "0x532842de9470816cf7cc7cee2d15f19593fbaf64",
          "topics": [
            "0x8c5be1e5ebec7d5bd14f71427d1e84f3dd0314c0f7b2291e5b200ac8c7c3b925",
            "0x00000000000000000000000035c540e8081d2dba0229eaf8c8d5cc9cc11b003d",
            "0x0000000000000000000000009fa87e2a02d6e187658ae232d3a3cab38fd638ca"
          ],
          "data": "0x0000000000000000000000000000000000000000000000000000000005f5e100",
          "blockHash": "0xe8fdb411e0dee6a2280e6707a769ccd4dc115f38e04a0b76d0dbd3e86ed82f43",
          "blockNumber": "0x921079",
          "blockTimestamp": "0x690c873c",
          "transactionHash": "0xe258886c14e992b3e936a6d86ceda45e6b757191f58199ac7af8e6570349beb0",
          "transactionIndex": "0x5a",
          "logIndex": "0x78",
          "removed": false
        },
        {
          "address": "0x532842de9470816cf7cc7cee2d15f19593fbaf64",
          "topics": [
            "0x8c5be1e5ebec7d5bd14f71427d1e84f3dd0314c0f7b2291e5b200ac8c7c3b925",
            "0x00000000000000000000000035c540e8081d2dba0229eaf8c8d5cc9cc11b003d",
            "0x0000000000000000000000009fa87e2a02d6e187658ae232d3a3cab38fd638ca"
          ],
          "data": "0x0000000000000000000000000000000000000000000000000000000000000000",
          "blockHash": "0xe8fdb411e0dee6a2280e6707a769ccd4dc115f38e04a0b76d0dbd3e86ed82f43",
          "blockNumber": "0x921079",
          "blockTimestamp": "0x690c873c",
          "transactionHash": "0xe258886c14e992b3e936a6d86ceda45e6b757191f58199ac7af8e6570349beb0",
          "transactionIndex": "0x5a",
          "logIndex": "0x79",
          "removed": false
        },
        {
          "address": "0x532842de9470816cf7cc7cee2d15f19593fbaf64",
          "topics": [
            "0xddf252ad1be2c89b69c2b068fc378daa952ba7f163c4a11628f55a4df523b3ef",
            "0x00000000000000000000000035c540e8081d2dba0229eaf8c8d5cc9cc11b003d",
            "0x0000000000000000000000009fa87e2a02d6e187658ae232d3a3cab38fd638ca"
          ],
          "data": "0x0000000000000000000000000000000000000000000000000000000005f5e100",
          "blockHash": "0xe8fdb411e0dee6a2280e6707a769ccd4dc115f38e04a0b76d0dbd3e86ed82f43",
          "blockNumber": "0x921079",
          "blockTimestamp": "0x690c873c",
          "transactionHash": "0xe258886c14e992b3e936a6d86ceda45e6b757191f58199ac7af8e6570349beb0",
          "transactionIndex": "0x5a",
          "logIndex": "0x7a",
          "removed": false
        },
        {
          "address": "0x9fa87e2a02d6e187658ae232d3a3cab38fd638ca",
          "topics": [
            "0xddf252ad1be2c89b69c2b068fc378daa952ba7f163c4a11628f55a4df523b3ef",
            "0x0000000000000000000000000000000000000000000000000000000000000000",
            "0x00000000000000000000000035c540e8081d2dba0229eaf8c8d5cc9cc11b003d"
          ],
          "data": "0x0000000000000000000000000000000000000000000000000000000005f5e100",
          "blockHash": "0xe8fdb411e0dee6a2280e6707a769ccd4dc115f38e04a0b76d0dbd3e86ed82f43",
          "blockNumber": "0x921079",
          "blockTimestamp": "0x690c873c",
          "transactionHash": "0xe258886c14e992b3e936a6d86ceda45e6b757191f58199ac7af8e6570349beb0",
          "transactionIndex": "0x5a",
          "logIndex": "0x7b",
          "removed": false
        },
        {
          "address": "0x9fa87e2a02d6e187658ae232d3a3cab38fd638ca",
          "topics": [
            "0xea00f88768a86184a6e515238a549c171769fe7460a011d6fd0bcd48ca078ea4",
            "0x00000000000000000000000035c540e8081d2dba0229eaf8c8d5cc9cc11b003d",
            "0x000000000000000000000000532842de9470816cf7cc7cee2d15f19593fbaf64",
            "0x00000000000000000000000035c540e8081d2dba0229eaf8c8d5cc9cc11b003d"
          ],
          "data": "0x0000000000000000000000000000000000000000000000000000000005f5e1000000000000000000000000000000000000000000000000000000000005f5e100",
          "blockHash": "0xe8fdb411e0dee6a2280e6707a769ccd4dc115f38e04a0b76d0dbd3e86ed82f43",
          "blockNumber": "0x921079",
          "blockTimestamp": "0x690c873c",
          "transactionHash": "0xe258886c14e992b3e936a6d86ceda45e6b757191f58199ac7af8e6570349beb0",
          "transactionIndex": "0x5a",
          "logIndex": "0x7c",
          "removed": false
        },
        {
          "address": "0x74066bf569fc0077072ff4c08a83f790dff3f254",
          "topics": [
            "0xe96d7872363f475d18b2f5390caaa5eaa96b2d38e42c62afe4ac08ebd2b13c3a",
            "0x0000000000000000000000000000000000000000000000000000000000000001",
            "0x00000000000000000000000035c540e8081d2dba0229eaf8c8d5cc9cc11b003d",
            "0x000000000000000000000000532842de9470816cf7cc7cee2d15f19593fbaf64"
          ],
          "data": "0x0000000000000000000000000000000000000000000000000000000005f5e1000000000000000000000000000000000000000000000000000000000005f5e10000000000000000000000000000000000000000000000000000000000690c873c0000000000000000000000000000000000000000000000000000000000000000",
          "blockHash": "0xe8fdb411e0dee6a2280e6707a769ccd4dc115f38e04a0b76d0dbd3e86ed82f43",
          "blockNumber": "0x921079",
          "blockTimestamp": "0x690c873c",
          "transactionHash": "0xe258886c14e992b3e936a6d86ceda45e6b757191f58199ac7af8e6570349beb0",
          "transactionIndex": "0x5a",
          "logIndex": "0x7d",
          "removed": false
        },
        {
          "address": "0x532842de9470816cf7cc7cee2d15f19593fbaf64",
          "topics": [
            "0x8c5be1e5ebec7d5bd14f71427d1e84f3dd0314c0f7b2291e5b200ac8c7c3b925",
            "0x00000000000000000000000035c540e8081d2dba0229eaf8c8d5cc9cc11b003d",
            "0x0000000000000000000000009fa87e2a02d6e187658ae232d3a3cab38fd638ca"
          ],
          "data": "0x0000000000000000000000000000000000000000000000000000000000000000",
          "blockHash": "0xe8fdb411e0dee6a2280e6707a769ccd4dc115f38e04a0b76d0dbd3e86ed82f43",
          "blockNumber": "0x921079",
          "blockTimestamp": "0x690c873c",
          "transactionHash": "0xe258886c14e992b3e936a6d86ceda45e6b757191f58199ac7af8e6570349beb0",
          "transactionIndex": "0x5a",
          "logIndex": "0x7e",
          "removed": false
        },
        {
          "address": "0xb4486f75129b0aa74f99b1b8b7b478cd4c17e994",
          "topics": [
            "0xb4c99a6d727df238766e771095ad097c0bf9c2aef920b56b65c0ac529f36f2db",
            "0x000000000000000000000000bbb91dd1337852056a870b4e81d8f582552eca89",
            "0x000000000000000000000000f3235882ba91086c2e2d05953b91df23efe68d6e",
            "0x0000000000000000000000000000000000000000000000000000000000000000"
          ],
          "data": "0x00000000000000000000000000000000000000000000000000000000000000a000000000000000000000000000000000000000000000000000000000000000e0000000000000000000000000000000000000000000000000000000000000000100000000000000000000000000000000000000000000000000000000690c953500000000000000000000000000000000000000000000000000000000000001400000000000000000000000000000000000000000000000000000000000000017782d616c656f2d36613532646539373234613665386632000000000000000000000000000000000000000000000000000000000000000000000000000000002431663364656263312d613066322d343737392d626335392d343039383438393263316531000000000000000000000000000000000000000000000000000000000000000000000000000000000000000000000000000000000000000000000001000000000000000000000000dac74b6f9b3609e914c924eb87adff87a30fcdf6",
          "blockHash": "0xe8fdb411e0dee6a2280e6707a769ccd4dc115f38e04a0b76d0dbd3e86ed82f43",
          "blockNumber": "0x921079",
          "blockTimestamp": "0x690c873c",
          "transactionHash": "0xe258886c14e992b3e936a6d86ceda45e6b757191f58199ac7af8e6570349beb0",
          "transactionIndex": "0x5a",
          "logIndex": "0x7f",
          "removed": false
        },
        {
          "address": "0x54d1540631cacfa5f8d9b3371b88f562355387fa",
          "topics": [
            "0x2ea0473a63d92d3182c86a6f05d1984a63782c7c58f5d32bb629fdf43388c1b0"
          ],
          "data": "0x0000000000000000000000000000000000000000000000000000000000000040000000000000000000000000000000000000000000000000000000000000030000000000000000000000000000000000000000000000000000000000000000030000000000000000000000000000000000000000000000000000000000000002000000000000000000000000000000000000000000000000006574683aaa36a700000000000000000000000035c540e8081d2dba0229eaf8c8d5cc9cc11b003d00000000000000000000000000000000000000000000000000000000000000e00000000000000000000000000000000000000000000000000000000000000180000000000000000000000000000000000000000000000000000000000092107900000000000000000000000000000000000000000000000000000616c656f3a30000000000000000000000000000000000000000000000000000000000000040000000000000000000000000000000000000000000000000000000000000003f616c656f316e78323270756c7778343475636a64646d6e663376356d32726b65796334677130657635733530716179726b36727672716771736b347a73336500000000000000000000000000bbb91dd1337852056a870b4e81d8f582552eca8900000000000000000000000000000000000000000000000000000000000000800000000000000000000000000000000000000000000000000000000005f5e10000000000000000000000000000000000000000000000000000000000000000e0000000000000000000000000000000000000000000000000000000000000003f616c656f31306b776e6d6e3070353037396a756c6668353239667730796a6c766b657232733271776836676a306b3365713663797a7975797337643870387600000000000000000000000000000000000000000000000000000000000000003f616c656f316a67613968726e306435756d7132747371747932746376746a6b7664386e3972306737636a37667135766c6434793668657367737132336e336c000000000000000000000000000000000000000000000000000000000000000000",
          "blockHash": "0xe8fdb411e0dee6a2280e6707a769ccd4dc115f38e04a0b76d0dbd3e86ed82f43",
          "blockNumber": "0x921079",
          "blockTimestamp": "0x690c873c",
          "transactionHash": "0xe258886c14e992b3e936a6d86ceda45e6b757191f58199ac7af8e6570349beb0",
          "transactionIndex": "0x5a",
          "logIndex": "0x80",
          "removed": false
        }
      ],
      "logsBloom": "0x00000000400000000000000010080000002400000000000000000000000000402000001060000000004200000000100000000000800000000000000000240000040000000000000008000008080000000000400000040000000000800000000000200000020000000000000000200840002100000000000000000010000000000000000000000000000000000000000000000020000080000000020000000000020000000000004200000000000000000000000000000000000000000000040000800003000000000000000000000042000000000000000000020000000060002010000000080002400000010040000000000000000000000400000000000000",
      "type": "0x2",
      "transactionHash": "0xe258886c14e992b3e936a6d86ceda45e6b757191f58199ac7af8e6570349beb0",
      "transactionIndex": "0x5a",
      "blockHash": "0xe8fdb411e0dee6a2280e6707a769ccd4dc115f38e04a0b76d0dbd3e86ed82f43",
      "blockNumber": "0x921079",
      "gasUsed": "0xd7741",
      "effectiveGasPrice": "0xb0bb",
      "from": "0xbbb91dd1337852056a870b4e81d8f582552eca89",
      "to": "0x35c540e8081d2dba0229eaf8c8d5cc9cc11b003d",
      "contractAddress": null
    }
  ],
  "libraries": [],
  "pending": [],
  "returns": {},
  "timestamp": 1762428735150,
  "chain": 11155111,
  "commit": "fd4b907c"
}