{
  "transactions": [
    {
      "hash": "0x7ffedd7f4b85a67727f8136e2fa37cea2c3488149df537f3e58b53ea21650d95",
      "transactionType": "CALL",
      "contractName": null,
      "contractAddress": "0x35c540e8081d2dba0229eaf8c8d5cc9cc11b003d",
      "function": "addToken(address,uint256,address,string,string,uint256,uint256)",
      "arguments": [
        "0x9fa87E2a02D6E187658ae232D3a3cAB38Fd638Ca",
        "6694886634403",
        "0x0000000000000000000000000000000000000000",
        "aleo10kwnmn0p5079julfh529fw0yjlvker2s2qwh6gj0k3eq6cyzyuys7d8p8v",
        "aleo1nx22pulwx44ucjddmnf3v5m2rkeyc4gq0ev5s50qayrk6rvrqgqsk4zs3e",
        "1",
        "100000000000"
      ],
      "transaction": {
        "from": "0xbbb91dd1337852056a870b4e81d8f582552eca89",
        "to": "0x35c540e8081d2dba0229eaf8c8d5cc9cc11b003d",
        "gas": "0x5f0b0",
        "value": "0x0",
        "input": "0xc354c62f0000000000000000000000009fa87e2a02d6e187658ae232d3a3cab38fd638ca00000000000000000000000000000000000000000000000000000616c656f3a3000000000000000000000000000000000000000000000000000000000000000000000000000000000000000000000000000000000000000000000000000000e000000000000000000000000000000000000000000000000000000000000001400000000000000000000000000000000000000000000000000000000000000001000000000000000000000000000000000000000000000000000000174876e800000000000000000000000000000000000000000000000000000000000000003f616c656f31306b776e6d6e3070353037396a756c6668353239667730796a6c766b657232733271776836676a306b3365713663797a7975797337643870387600000000000000000000000000000000000000000000000000000000000000003f616c656f316e78323270756c7778343475636a64646d6e663376356d32726b65796334677130657635733530716179726b36727672716771736b347a73336500",
        "nonce": "0x85",
        "chainId": "0xaa36a7"
      },
      "additionalContracts": [],
      "isFixedGasLimit": false
    }
  ],
  "receipts": [
    {
      "status": "0x1",
      "cumulativeGasUsed": "0x1225ec9",
      "logs": [
        {
          "address": "0x35c540e8081d2dba0229eaf8c8d5cc9cc11b003d",
          "topics": [
            "0xf7a6d688a353b66d1ebb8f5080c5b7513eaab79221239496ee76041df102a025"
          ],
          "data": "0x000000000000000000000000000000000000000000000000000000000000004000000000000000000000000000000000000000000000000000000616c656f3a30000000000000000000000009fa87e2a02d6e187658ae232d3a3cab38fd638ca000000000000000000000000000000000000000000000000000000000000000000000000000000000000000000000000000000000000000000000000000000e000000000000000000000000000000000000000000000000000000000000001400000000000000000000000000000000000000000000000000000000000000001000000000000000000000000000000000000000000000000000000174876e8000000000000000000000000000000000000000000000000000000000000000001000000000000000000000000000000000000000000000000000000000000003f616c656f31306b776e6d6e3070353037396a756c6668353239667730796a6c766b657232733271776836676a306b3365713663797a7975797337643870387600000000000000000000000000000000000000000000000000000000000000003f616c656f316e78323270756c7778343475636a64646d6e663376356d32726b65796334677130657635733530716179726b36727672716771736b347a73336500",
          "blockHash": "0xe51313ac416309f25581a8b76f2d1a3a88500130761ec23509fc8532f6e15eb0",
          "blockNumber": "0x91f64c",
          "blockTimestamp": "0x690b3b38",
          "transactionHash": "0x7ffedd7f4b85a67727f8136e2fa37cea2c3488149df537f3e58b53ea21650d95",
          "transactionIndex": "0x90",
          "logIndex": "0x8f",
          "removed": false
        }
      ],
      "logsBloom": "0x00000000000000000000000000000000000000000000000000000000000000000000000000000000000000000000000000000000000000000000000000000010002000000000000000400000000000000000000000000000000000000000000000000000000000000000000000000000000000000000000000000000000000000000000000000000000000000000000000000000000000000000000000000000000000000000000000000000000000000000000000000000000000200000002000000000000000000000000000000000000000000000000000000000000400000000000000000000000000000000000000000000000000000000000000000000",
      "type": "0x2",
      "transactionHash": "0x7ffedd7f4b85a67727f8136e2fa37cea2c3488149df537f3e58b53ea21650d95",
      "transactionIndex": "0x90",
      "blockHash": "0xe51313ac416309f25581a8b76f2d1a3a88500130761ec23509fc8532f6e15eb0",
      "blockNumber": "0x91f64c",
      "gasUsed": "0x40fca",
      "effectiveGasPrice": "0xf423f",
      "from": "0xbbb91dd1337852056a870b4e81d8f582552eca89",
      "to": "0x35c540e8081d2dba0229eaf8c8d5cc9cc11b003d",
      "contractAddress": null
    }
  ],
  "libraries": [],
  "pending": [],
  "returns": {},
  "timestamp": 1762343738760,
  "chain": 11155111,
  "commit": "fd4b907c"
}