{
  "transactions": [
    {
      "hash": "0xe8e9b82d0bc8502e42c07f9956dcb2e94f1faa934cfaff5cb2d723a5f0c84e80",
      "transactionType": "CALL",
      "contractName": null,
      "contractAddress": "0x60719bfb63d36e09bdc8478f1378bf6e886fbde1",
      "function": "addToken(address,uint256,address,string,string,uint256,uint256)",
      "arguments": [
        "0xC60a7e21A6753ED4305C93034607009fAeC2A5F3",
        "6694886634403",
        "0x0000000000000000000000000000000000000000",
        "aleo10kwnmn0p5079julfh529fw0yjlvker2s2qwh6gj0k3eq6cyzyuys7d8p8v",
        "aleo1nx22pulwx44ucjddmnf3v5m2rkeyc4gq0ev5s50qayrk6rvrqgqsk4zs3e",
        "1",
        "100000000000"
      ],
      "transaction": {
        "from": "0xbbb91dd1337852056a870b4e81d8f582552eca89",
        "to": "0x60719bfb63d36e09bdc8478f1378bf6e886fbde1",
        "gas": "0x5f0f8",
        "value": "0x0",
        "input": "0xc354c62f000000000000000000000000c60a7e21a6753ed4305c93034607009faec2a5f300000000000000000000000000000000000000000000000000000616c656f3a3000000000000000000000000000000000000000000000000000000000000000000000000000000000000000000000000000000000000000000000000000000e000000000000000000000000000000000000000000000000000000000000001400000000000000000000000000000000000000000000000000000000000000001000000000000000000000000000000000000000000000000000000174876e800000000000000000000000000000000000000000000000000000000000000003f616c656f31306b776e6d6e3070353037396a756c6668353239667730796a6c766b657232733271776836676a306b3365713663797a7975797337643870387600000000000000000000000000000000000000000000000000000000000000003f616c656f316e78323270756c7778343475636a64646d6e663376356d32726b65796334677130657635733530716179726b36727672716771736b347a73336500",
        "nonce": "0x30",
        "chainId": "0x4268"
      },
      "additionalContracts": [],
      "isFixedGasLimit": false
    }
  ],
  "receipts": [
    {
      "status": "0x1",
      "cumulativeGasUsed": "0x2b7ad4d",
      "logs": [
        {
          "address": "0x60719bfb63d36e09bdc8478f1378bf6e886fbde1",
          "topics": [
            "0xf7a6d688a353b66d1ebb8f5080c5b7513eaab79221239496ee76041df102a025"
          ],
          "data": "0x000000000000000000000000000000000000000000000000000000000000004000000000000000000000000000000000000000000000000000000616c656f3a3000000000000000000000000c60a7e21a6753ed4305c93034607009faec2a5f3000000000000000000000000000000000000000000000000000000000000000000000000000000000000000000000000000000000000000000000000000000e000000000000000000000000000000000000000000000000000000000000001400000000000000000000000000000000000000000000000000000000000000001000000000000000000000000000000000000000000000000000000174876e8000000000000000000000000000000000000000000000000000000000000000001000000000000000000000000000000000000000000000000000000000000003f616c656f31306b776e6d6e3070353037396a756c6668353239667730796a6c766b657232733271776836676a306b3365713663797a7975797337643870387600000000000000000000000000000000000000000000000000000000000000003f616c656f316e78323270756c7778343475636a64646d6e663376356d32726b65796334677130657635733530716179726b36727672716771736b347a73336500",
          "blockHash": "0x594ae46b2eda117715dee8bf586ff55dcbf25994f4b67e56e7d817da61a45b98",
          "blockNumber": "0x488122",
          "blockTimestamp": "0x6901efd8",
          "transactionHash": "0xe8e9b82d0bc8502e42c07f9956dcb2e94f1faa934cfaff5cb2d723a5f0c84e80",
          "transactionIndex": "0x8c",
          "logIndex": "0x81",
          "removed": false
        }
      ],
      "logsBloom": "0x000000000000000000000000000000000000000000000000000000000000000000000000000000000000000000000000000000000000000000000000000000000000000000000000000000000000000000000000000000000000000000000000000000000000000000000000000000000000000000000000000000000000000000000000000000800000000000a0000000000000000000000000000000000000000000000000000000000000000000000000000000000000000000200000002000000000000000000000000000000000000000000000000000000000000400000000000000000000000000000000000000000000000000000000000000000000",
      "type": "0x2",
      "transactionHash": "0xe8e9b82d0bc8502e42c07f9956dcb2e94f1faa934cfaff5cb2d723a5f0c84e80",
      "transactionIndex": "0x8c",
      "blockHash": "0x594ae46b2eda117715dee8bf586ff55dcbf25994f4b67e56e7d817da61a45b98",
      "blockNumber": "0x488122",
      "gasUsed": "0x40ffb",
      "effectiveGasPrice": "0x4050b24ae",
      "from": "0xbbb91dd1337852056a870b4e81d8f582552eca89",
      "to": "0x60719bfb63d36e09bdc8478f1378bf6e886fbde1",
      "contractAddress": null
    }
  ],
  "libraries": [],
  "pending": [],
  "returns": {},
  "timestamp": 1761734705255,
  "chain": 17000,
  "commit": "fd4b907c"
}