{
  "transactions": [
    {
      "hash": null,
      "transactionType": "CALL",
      "contractName": null,
      "contractAddress": "0x35c540e8081d2dba0229eaf8c8d5cc9cc11b003d",
      "function": "setPredicateService(address)",
      "arguments": [
        "0xf3235882bA91086C2E2d05953b91df23Efe68d6e"
      ],
      "transaction": {
        "from": "0xbbb91dd1337852056a870b4e81d8f582552eca89",
        "to": "0x35c540e8081d2dba0229eaf8c8d5cc9cc11b003d",
        "gas": "0x11494",
        "value": "0x0",
        "input": "0x87a3ecd7000000000000000000000000f3235882ba91086c2e2d05953b91df23efe68d6e",
        "nonce": "0x94",
        "chainId": "0xaa36a7"
      },
      "additionalContracts": [],
      "isFixedGasLimit": false
    }
  ],
  "receipts": [],
  "libraries": [],
  "pending": [],
  "returns": {},
  "timestamp": 1762424101821,
  "chain": 11155111,
  "commit": "fd4b907c"
}